:10100000008000201167000031EA01004167000004
:1010100041670000416700004167000000000000D8
:10102000000000000000000000000000E964000073
:10103000416700000000000095640000F5D7010042
:10104000D1660000BB4B0200D1660000D1660000F3
:10105000D1660000D1660000D1660000D1660000B4
:10106000D1660000D1660000D1660000D1660000A4
:10107000D1660000D1660000D1660000D166000094
:10108000D1660000D1660000D1660000D166000084
:10109000D1660000D1660000D1660000D166000074
:1010A000D1660000D1660000D1660000D166000064
:1010B000D1660000D1660000D1660000D166000054
:1010C000D1660000D1660000D1660000D166000044
:1010D000D1660000D1660000D1660000D166000034
:1010E000D1660000D1660000D1660000D166000024
:1010F000D1660000D1660000D1660000D166000014
:1011000053B94AB9002908BF00281CBF4FF0FF316E
:101110004FF0FF3000F088B9ADF1080C6DE904CE56
:1011200000F01AF8DDF804E0DDE9022304B07047AE
:10113000430803F05533C01A830803F0333300F03B
:101140003330184400EB101000F00F3000EB00209B
:1011500000EB0040000E70472DE9F047089E0D4659
:1011600004468846002B4DD18A42944668D9B2FA8B
:1011700082F252B101FA02F3C2F1200120FA01F128
:101180000CFA02FC41EA030894404FEA1C45210C8A
:10119000B8FBF5FE1FFA8CF705FB1E8341EA0343FB
:1011A0000EFB07F199420BD91CEB03030EF1FF3044
:1011B00080F01E81994240F21B81AEF1020E634421
:1011C0005B1AA4B2B3FBF5F005FB103344EA034409
:1011D00000FB07F7A7420AD91CEB040400F1FF3318
:1011E00080F00881A74240F2058164440238E41B84
:1011F00040EA0E4000211EB1D4400023C6E900435E
:10120000BDE8F0878B4208D9002E00F0EE80002167
:10121000C6E900050846BDE8F087B3FA83F1002966
:101220004AD1AB4202D3824200F2F980841A65EBC4
:10123000030301209846002EE2D0C6E90048DFE70C
:1012400002B9FFDEB2FA82F2002A40F09180A1EBEF
:101250000C054FEA1C471FFA8CFE0121B5FBF7F382
:1012600007FB1350250C45EA00450EFB03F0A8428E
:1012700008D91CEB050503F1FF3802D2A84200F2A1
:10128000CB8043462D1AA4B2B5FBF7F007FB1055EF
:1012900044EA05440EFB00FEA64508D91CEB0404F5
:1012A00000F1FF3502D2A64500F2BB802846A4EB30
:1012B0000E0440EA03409EE7C1F120078B4022FA6A
:1012C00007FC4CEA030C20FA07F405FA01F31C436F
:1012D000FD404FEA1C4900FA01F3B5FBF9F8200C78
:1012E0001FFA8CFE09FB185540EA054508FB0EF075
:1012F000A84202FA01F20BD91CEB050508F1FF3AEE
:1013000080F08880A84240F28580A8F102086544F8
:101310002D1AA4B2B5FBF9F009FB105544EA0545B6
:1013200000FB0EFEAE4508D91CEB050500F1FF34AD
:101330006CD2AE456AD90238654440EA0840A0FB49
:101340000294A5EB0E05A542C846A64656D353D037
:101350005EB1B3EB080265EB0E0505FA07F722FA5A
:1013600001F3CD401F43C6E900750021BDE8F087B9
:10137000C2F1200320FA03F10CFA02FC25FA03F370
:1013800095400D434FEA1C471FFA8CFEB3FBF7F163
:1013900007FB11302B0C43EA004301FB0EF098428F
:1013A00004FA02F408D91CEB030301F1FF382FD231
:1013B00098422DD9023963441B1AADB2B3FBF7F042
:1013C00007FB103345EA034500FB0EF3AB4208D997
:1013D0001CEB050500F1FF3816D2AB4214D90238D8
:1013E0006544ED1A40EA014138E73146304607E7E7
:1013F0008646E5E61846FAE64B45A9D2B9EB02085F
:1014000064EB0C0E0138A3E74046EAE7204694E778
:101410004146D1E7D0467BE7023B654432E70846C8
:1014200009E76444023842E7704700BF000000004B
:101430002DE9F8430346D0E90A801E6B184D841944
:101440003034A0451746894613A3D3E9002315D8A5
:10145000A0FB0501FFF754FE20F07F40C9F8000013
:10146000A4EB08000CA3D3E90023A0FB0501FFF7C0
:1014700047FE20F07F403860BDE8F883A8FB0501F7
:10148000FFF73EFE20F07F40C9F8000006F1300073
:10149000E8E700BFAFF300808D49FD1A07000000A8
:1014A00000CA9A3B000000002DE9F04F8FB020B930
:1014B0000FB0BDE8F04F13F0CDB8CF4D95F84A709E
:1014C00017F0010701D00C27C6E095F8293005EB8D
:1014D0008303D3F82C8095F8353005EB8303D3F8DC
:1014E00038A0B8F1000F14D04446394614F8020B66
:1014F000C0F3801010F0E4FE0622014620461DF0E5
:101500005AFB98F800305A0619D4BB48514623F0CC
:1015100077F998F8003013F00E0F40F0A1802B6A95
:10152000002BD0D112F0DAFA814630B112F0E2FA93
:10153000834660B9484612F0D7FA07278CE00621A7
:10154000204622F07EFD0028DFD1122784E013F030
:101550001DFB044618B9584612F0D2FAEAE74FF6D6
:10156000FF720285826E00F11C0312B900F1600265
:10157000826604F15C0204F15801A06E0B9322F024
:101580006BFD94F86E2022F0070284F86E2094F828
:10159000392002F03F0262F07F0284F8392094F88B
:1015A0003C2022F0070284F83C200622A4F8702098
:1015B00094F87C20002622F0070284F87C20C4E9FD
:1015C0001266A666A4F86C60E685266384F83B6024
:1015D0002665A4F87460A4F87860A4F8886084F89C
:1015E0008A60C4F89860A4F89C60A4F8B06023F006
:1015F00051F894F8CA200B9B2B6222F0030284F866
:10160000CA2094F8F620A4F8C860C4E92E0166F355
:10161000041200200021C5E9109BC4E93001C4E98F
:101620004A66C4E94866C4E90566A4F8D06084F84F
:10163000D360C4F8D490A4F8F46084F8F620C4F819
:101640008460C4F81C612670E46115F025F838B197
:10165000694812F08DFE032738460FB0BDE8F08FC1
:1016600095F824300121C3F342030DF133008DF8C6
:10167000333022F01DFD002800F0CC8098F80020C7
:1016800002F00F02022A00F1FF316FD198F8013009
:101690001033DB00434303F5AA73642001FB0031E0
:1016A0005648ED6100243123C5E90234A1FB000155
:1016B0004FA3D3E90023C5E905442C706C60FFF704
:1016C0001FFDB5F84890286122F091FF0646B9F158
:1016D000000F06D198F8004004F00F04631E5C422E
:1016E0005C4195F824802B69DFF814B1454A64F316
:1016F000000885F824804FF0020A18F001080DACAC
:10170000CDF834A04FD00020CDE90525CDE9000368
:1017100004930321CDE907B4CDE9020033465246D4
:1017200022F032FF214612F0FFFA002872D1364A29
:1017300006954AF2D833CDE904020093CDE907B407
:10174000CDE902000190334601220321CDF834A0F7
:1017500022F01AFF214612F0E7FA00285AD195F834
:101760004A3043F0010385F84A3075E7012A16D064
:101770009AF801301033DB005AB998F8010003F5EC
:1017800027731030C200983303EBC00302F59A7040
:1017900084E7062AF1D010204FF4AA73F2E716204E
:1017A0004FF42D73EEE7194903F24710086018480B
:1017B000CDE90432CDE908414FF0910CA9FB0001BD
:1017C0004FF6FF73CDE902830CFB091108A3D3E99F
:1017D0000023CDE9065BFFF793FC3346CDE900809B
:1017E00052460321404610F097FCB3E7AFF3008068
:1017F0008D49FD1A07000000604C002000CA9A3B8A
:10180000713501006542010065410100AC4C0020CA
:10181000002AE7842B6A002B3FF455AE014812F0F2
:10182000A7FD50E6604C00202DE9F047044690F8F3
:10183000300094F820303E4FC0F3400060F3861330
:101840008CB084F8203004F1210110F039FD268D90
:1018500094F82030E4610025A6FB07014FF0910CBD
:1018600003F079030CFB0611C4E9055584F8203018
:1018700025702DA3D3E90023FFF742FC3123C4E9EF
:101880000235E36A65600933A0F13102934232BF49
:1018900023612561E562274D064622F0A8FE02235A
:1018A0000B93651B3423B5FBF3F5234BB4F828C029
:1018B000CDE90643B846214B0593074623690493B7
:1018C000ACFB080891214FF0000901FB0C810DF1E0
:1018D0002C0A15A3D3E90023CDF820A0CDF80C9055
:1018E000FFF70EFC104619464FF47A720023FFF7FB
:1018F00007FC0435EDB2CDE901600321CDF800907D
:101900003B462A46484622F03FFE514612F00CFA6A
:1019100040B994F8303043F0010384F830300CB013
:10192000BDE8F0870C20FAE78D49FD1A070000009A
:10193000002AE784D04C002071350100B547010032
:10194000F8B50446002016461F4612F0AFFF0546C4
:1019500020B390F83030018567F3420380F83030CF
:101960009DF818306401DB0003F0180304F0200434
:101970001C4390F8203023F038031C4380F82040AB
:1019800009489124A6FB000105A3D3E9002304FB29
:101990000611FFF7B5FBE8620020F8BD0C20FCE75C
:1019A0008D49FD1A07000000002AE78400000000AE
:1019B0002DE9F04F914690F8883090F889209342B5
:1019C0008DB004460F460BD190F89D1090F89C20E6
:1019D0008A4225D00122023B80F88A2080F8893093
:1019E00094F8883094F889209A1A02F00302022AA7
:1019F00040F06B8294F88A20012A00F01082022ABB
:101A000000F02A84CB4ACC49CC4840F232431AF049
:101A1000AEFB404080F311884FF0030002DF54E238
:101A200090F8B13090F8B02093425BD09B1AD80761
:101A3000D6D594F87C1011F0010826D012F012F9D6
:101A400005460028CCD094F8B03084F8B130238D0E
:101A5000C38003230371037F43F00303037700F183
:101A6000200609234377C3770822002130461DF062
:101A7000CDF8D4E93001324622F026FF2946086825
:101A800012F044F812F04CF8AAE7AD4822F094FAAC
:101A900005460028A4D094F8B130013B84F8B13059
:101AA000037943F0030303710923437194F9393037
:101AB000002BACBF08230E2300F10806C3710822D7
:101AC000414630461DF0A2F8D4E92E01324622F0FC
:101AD000FBFE2946204622F008FFB4F87630A4F831
:101AE00078307DE790F8C93090F8C820934260D0F4
:101AF0009B1AD9077FF574AF90F8CA30DA0725D45E
:101B00008F4822F059FA014600283FF469AF94F853
:101B1000C930013B84F8C93094F8CA3043F001035E
:101B200084F8CA30037943F0030303710623437139
:101B30000C23C3710B2303726FF00E034372052352
:101B400083724FF0FF33C3720373C3E79E0722D53E
:101B500012F088F8014600283FF442AF94F8C830EC
:101B600084F8C930238DC38003230371037F43F0BE
:101B700003030377062343770C23C37794F8CB3012
:101B800080F82030B4F8CC30A0F82130B4F8CE3052
:101B9000A0F8233073E740F6E943664A6649674890
:101BA0001AF0E5FA404080F311884FF0030002DF9D
:101BB00016E790F8F52090F8F4309A423FF410AF11
:101BC000604D2B6813B198427FF40AAF94F8F63059
:101BD00003F00703052B00F21F8101A252F823F046
:101BE000F91B00007D1C0000CF1D0000E119000062
:101BF000E1190000E11900005148668EB4F82E800A
:101C000022F0DAF9014600283FF4EAAE03792C60AD
:101C100043F003030371182343710F23C371B4F816
:101C2000F8300381B4F8FA304381B4F8FC30838192
:101C3000B4F8FE30C38100230374C37403754644B3
:101C40004FF0FF3343758375C37503764376837610
:101C5000C3760377437783774E44B4F87630A4F89D
:101C60007830A0F8116094F8F630042262F3020391
:101C700084F8F630204622F038FEB1E694F8F7609A
:101C8000EEB12F4822F098F9014600283FF4A8AEA3
:101C9000037943F0030303711123C37103234371D9
:101CA0000F23037294F8F7304372204622F01DFE92
:101CB00094F8F43084F8F53000232B6090E694F922
:101CC0003930002B40DB94F8F63094F80001C4F86A
:101CD000A860052262F3020384F8F6300123B4F809
:101CE000FA2084F8AC3048B1B2FBF0F313FB00F3F8
:101CF000B4F8F8009BB2984298BF1A46B4F8FC308A
:101D0000A4F8A230B4F8FE30A4F8A43094F8F63069
:101D1000A4F8A020C3F3C00394F89E20DB0043F096
:101D2000020322F00F021343013984F89E3084F835
:101D30009D1055E64483020056890200B57B0200DF
:101D4000A44D0020184D0020664822F035F90146C8
:101D500000283FF445AE037943F0030303711823D1
:101D600043711023C371B4F8F8300381B4F8FA302A
:101D70004381B4F8FC308381B4F8FE30C38194F819
:101D800000310374B4F80231A0F81130B4F8043112
:101D9000A0F81330B4F80631A0F81530B4F80831C3
:101DA000A0F81730B4F80A31A0F81930B4F80C31A3
:101DB000A0F81B30B4F80E31A0F81D30204622F0F8
:101DC00094FD94F8F43084F8F5302E6008E611F0B4
:101DD00049FF014600283FF403AE94F8F6200323A0
:101DE00063F3020284F8F620228D0371037FC28020
:101DF00043F003030377182343770F23C377B4F823
:101E0000F8300384B4F8FA304384B4F8FC308384A7
:101E1000B4F8FE30C38432E640F61C63BDE6324AB5
:101E2000116801B91460E18DB4F83280884494F8E7
:101E30009E10C84411F007001FFA88F856D0012000
:101E400011F0F8FE064600283FD0264822F0B4F8EC
:101E50000546D0B311F006FF3368D4F898205A60D5
:101E60002B79C4F8986043F003032B7100220C23F4
:101E70006B71EA7194F8AC302B7240F2E241D4F805
:101E8000A830B3FBF1F3A5F80930B4F8A030A5F8F9
:101E90000B30B4F8A230A5F80D30B4F8A430A5F892
:101EA0000F3094F89E3062F3020384F89E30A38DC5
:101EB000984408F106081FFA88F8A4F88C80A5F861
:101EC00011802946204622F010FD94F8D03094F875
:101ED000D1209B1ADBB2012B00F00E8200200DB046
:101EE000BDE8F08FA44D0020184D0020B4F88CA060
:101EF000A8EB0A010D041FFA81FBE6D484F88930AF
:101F000094F89C3094F8F41084F89D3094F8F530EF
:101F10008B4209D094F8F63003F00703052B04BF79
:101F200084F8F510A4F878001368D4F898509C420F
:101F300004BF002313600DB12B6863B9BA4ABB49D3
:101F4000BB484FF427631AF012F9404080F3118820
:101F50004FF0030002DF2868B4F8A0204368C4F8FB
:101F60009830638DB4F8A260B4F8A4109A4213D1EB
:101F7000A38DB34210D140F2E24303FB02FC42F2D4
:101F8000107303FB01C3013BB3FBFCF3B4F872C055
:101F90009BB29C4500F02181238DEB8016232B7191
:101FA00000232B77EA832E846984294611F0AEFD45
:101FB00011F0B6FDA368002B09DAE068626823F02F
:101FC000004390422CBF3F18BF18A360FF1A608DDA
:101FD000B4F8A060974D10FB0BF080B2B0FBF6F2A6
:101FE00093B20B9316FB02F39BB2984240F2E2418C
:101FF00080F0F680181A484389A3D3E90023A0FB98
:102000000501FFF77DF820F07F4007440B9BE28D30
:10201000AAEB080A9A4494F939309144CA4440F230
:10202000E248002BA4F82EA008FB06F980F2E58018
:10203000226CA36C02FB1B33A36422F01FFE064636
:1020400094F87C00C0F3C20014F074FB94F8AC2048
:10205000064409FB06F608FB02F206F574267648EC
:10206000226506F23F260022B6FBF0F60B98C4F874
:102070008420A26C266470434FEA5903963B0244C5
:1020800063649A4294BFA264A364A0FB050164A3A5
:10209000D3E90023FFF734F83F1AD4F8A800B0FBC7
:1020A000F8F008FB00F05EA3D3E90023A0FB0501D4
:1020B000FFF726F8A9EB060620F07F48B4F8A03019
:1020C0006385B4F8A230A385B4F8A43042F210724C
:1020D00002FB0393013BB3FBF9F3A4F87230574BB7
:1020E0004B44B3FBF9F3A4F8763094F89E3019070B
:1020F00044BF0023A4F874300221012016F012F925
:1021000000220221824601200FF0B2FA204612F08E
:1021100049FD00F105095FFA89F9494B00944A46E7
:102120000121002010F092F830F002030CD03E4A5A
:1021300044493F4840F61B331AF019F8404080F3F9
:1021400011884FF0030002DFA6FB056534A3D3E935
:10215000002330462946FEF7D3FF3B4B0894CDE9D8
:1021600006433A4B05932369049320F07F44384893
:102170004FF6FE730393A4FB00010723301A03FB01
:10218000041165EB01014FF47A720023FEF7B8FFEA
:102190003B46CDE90140CDF800804A4601210020B0
:1021A00022F0F2F930F002030CD01F4A25492048F2
:1021B00040F6353319F0DBFF404080F311884FF0D3
:1021C000030002DFBAF1000F04D001220221104601
:1021D0000FF04EFA6FF08B0081E601232B71E4E6DD
:1021E00006FB120080B248430DA3D3E90023A0FBF5
:1021F0000501FEF785FF3F1A08E70B4A15490C4811
:1022000040F6EC2319F0B3FF404080F311884FF003
:10221000030002DF4FF000084E464FE7AFF30080A7
:102220008D49FD1A07000000448302002484020047
:10223000B57B020000CA9A3B40420F00FF59620280
:10224000E14A010037840200894A01004D5D010026
:102250008D49FD1A56890200628EE18D0A4491442F
:1022600094F88C20D2071FFA89F925D5364821F039
:10227000A3FE054600283FF428AE94F88C306FF397
:10228000000384F88C30A38D9944037909F1060981
:1022900043F00303A4F892900371082343710123D0
:1022A000C371052204F18D0108301CF084FCB4F8E0
:1022B0009230A5F80D3004E6B4F89220A9EB02099B
:1022C00019F4004F7FF401AE04F1340584F889302D
:1022D000052204F18D0128461CF06DFC05212846DD
:1022E00021F0E6FE94F8393060F3050384F83930C4
:1022F000012384F83031E8E5134821F05DFE014602
:1023000088B194F8D130013B84F8D130037943F09F
:102310000303037102234371C37194F8D230037233
:10232000204622F0E2FAB4F8780000287FF4D6AD17
:10233000B4F87230012B02D9A4F87830CEE501331D
:10234000A4F87830CBE500BFA44D002000000000C9
:102350002DE9F04F0B68D3F800A0037F93B0174628
:1023600015460446C3F380130622894600F11E0178
:1023700010A80C9357F8086B1CF01DFC062210A93E
:102380000EA81CF018FC2146032251F82EBB38463B
:102390001CF011FC2B1D184605F11807042204F14E
:1023A0002A010A931CF007FC052204F13A01384681
:1023B0001CF001FC0521384621F07AFE6A7F00F00E
:1023C0003F0060F305026A7794F83F20C2F30401EE
:1023D000A977A18EE981012802F01F028FB206D9E8
:1023E0001B3202F01F020B2A01D80A9B87B995F80D
:1023F00020306FF3000385F820300123237121463C
:10240000584611F083FB11F08BFB13B0BDE8F08F41
:10241000D9F800200D934FF00008C2F8048094F81A
:10242000371094F8362042EA01222A8294F83F209D
:1024300096F87C10638E0B93520962F3C50140F24B
:10244000E24386F87C105F4322F018FC0A9096F86D
:102450007C00C0F3C20014F06DF90A9A104478436E
:1024600000F57420764A00F23F20B0FBF2F07A08C3
:10247000963AAA6294F83120686240F2E2435A43E5
:10248000AA63228F0A92BDF828200D9B42F2107198
:1024900001FB0272013AB2FBF7F2A6F87220694A18
:1024A00019463A4406F18000B2FBF7F2A6F876200E
:1024B00004221CF080FB9DF83020A2774FF480733B
:1024C000A3830EA9062204F11F001CF074FBEB8904
:1024D000E3842B8A238596F87C30BDF8282062851A
:1024E000C3F3C20384F82C30304612F05BFB214664
:1024F000A881E080584611F009FB11F011FB41461C
:10250000404622F08FFB504CC6F8048083463123AE
:1025100000F25240C6E90238A0FB040146A3D3E909
:102520000023FEF7EDFD0B9AD9F80C3020F07F4028
:1025300040F2E24101FB02333061686A03F2B241CA
:1025400042463F1AA1EB0B0B012002210FF090F83D
:10255000504612F05DF8821C3C4BCDF800A0D2B280
:10256000012140460FF072FE514613F0D3FB9AF85A
:102570002430DB0707D50122CDF800804346114601
:1025800040460FF063FE304612F00CFBA7FB0478C8
:1025900029A3D3E90023054641463846FEF7B0FD9E
:1025A000D9F80830A3F13A0940F2C1130893284B37
:1025B000CDE90663274B05933369049320F07F46EA
:1025C00025480723A6FB0001381A03FB061168EB18
:1025D00001014FF0000A4FF47A720023CDF80CA0ED
:1025E000FEF78EFD14A3D3E90023CDE90160ABFB18
:1025F0000401FEF785FD053520F07F40EDB2009027
:102600004B462A460121504621F0BEFF30F002031E
:102610000CD0124A124913484FF4E17319F0A7FD88
:10262000404080F311884FF0030002DF01220221B5
:1026300010460FF01DF8E8E68D49FD1A070000006E
:1026400040420F00FF59620200CA9A3B155D01002B
:10265000E95C01004D5D01008D49FD1AD584020041
:1026600037840200B57B02002DE9F04F8FB0DFF810
:10267000D8800A900DF137010DF1360022F02DF8C7
:10268000324F9DF836A09DF837B021F0B0FFD8F852
:102690000040A4FB07542AA3D3E900238146214626
:1026A0002846FEF72DFD0A9B0B90D8F804000693F0
:1026B000274B0593002622A3D3E90023A0FB0701A3
:1026C000CDE90766FEF71CFD0B9B20F07F40CDE9AE
:1026D0000360204823F07F47A7FB00010723281A47
:1026E00003FB071164EB01014FF47A720023FEF73C
:1026F00007FD0096CDE901704B465A46032150462E
:1027000021F042FF30F0020416D1134A134800238F
:1027100018F0D8FC68B19DF837209DF83600009479
:10272000234603210FF092FD6FF073000FB0BDE858
:10273000F08FD8F80C00F9E76FF08B00F6E700BFD8
:102740008D49FD1A070000006451002000CA9A3B21
:10275000558E01008D49FD1A447B0B0074510020F9
:1027600038B50F4D044621F042FFA96821F041FF22
:102770006968B0FBF4F404440A4807A3D3E90023D2
:10278000A1FB0001FEF7BCFC20F07F40844294BF17
:102790000020012038BD00BF8D49FD1A0700000050
:1027A0006451002000CA9A3B10B594B000230793EF
:1027B00006A9CDF81F3007A80123069305F0CEFB2C
:1027C0009DF81C3009AC032B26D8DFE803F0021F6C
:1027D0002123144920461CF0A6F99DF81D300493CE
:1027E0009DF81E3003939DF81F3002939DF8203012
:1027F00001939DF8213000930B4A9DF822300594F7
:102800001E210CA819F0C0FC14B010BD0749E1E767
:102810000749DFE70749DDE7074A0A21204619F0A3
:10282000B3FCDAE720790200497902002779020037
:102830002E790200387902004279020008B580B989
:10284000084909481EF0E6FB58B91AF0A1FD03201B
:102850000DF04EFD034800F007FABDE80840FFF711
:10286000A3BF08BD486D0200706D020013B50C488F
:1028700018F006F904460020019001F0CFFC20B9C1
:10288000019B23B1074805F083FA02B010BDA3688D
:102890001B6D002BF4D001AA042120469847EFE7D6
:1028A0006C7902003D28000038B583680B491D692A
:1028B0004FF60A021A8182229A72044628461FF0B5
:1028C0006EFC6521284622F0A1FD0A21284622F04F
:1028D0009DFDB4F90C00C01738BD00BFF105C00064
:1028E00038B5C4692546092245F8500B04F15C014E
:1028F000284622F0DDFC064BE3618223A3744FF4EB
:102900004043A381F8236374A561002038BD00BF54
:10291000A928000038B5C46925466B2245F8500B3C
:1029200004F15C01284622F0C3FC064BE3618523D9
:10293000A3744CF20103A381F8236374A561002002
:1029400038BD00BF492900002DE9F04F83685F4979
:102950001C694FF478421A81054685229A7285B027
:1029600020461FF01CFCB5F90C30002BC0F2AB80E8
:10297000002302AE029301A9CDF80B3030460123AB
:10298000019305F0EBFA0625715D204622F03EFD2D
:10299000013DF9D14E4E2046317822F037FD337893
:1029A0003BB14C4F3378AB4207F1040737DC0023CF
:1029B00033700721204622F029FD08F0F1FD05467D
:1029C0001EF04FFB6B1E421E5D425D415142514164
:1029D000023505EB8101204622F018FD08F0BEFD0E
:1029E0000146204622F012FD08F0D4FD01462046A3
:1029F00022F00CFD1EF05BFB374D0146204622F015
:102A000005FD2B6893F808902046494622F0FEFC0D
:102A100000274F450FD3002005B0BDE8F08F37F8F1
:102A2000041C204622F004FD17F8021C204622F068
:102A3000EDFC0135B6E72B683E01DB682046995B6B
:102A400022F0F6FC2B68DB683344204693F80480C0
:102A5000414622F0DBFC4FF0000A2B685FFA8AF255
:102A6000DB68424533440DD393F805A02046514618
:102A700022F0CCFC4FF000085FFA88F39A450BD89F
:102A80000137C6E79A684FEA4A132046D15A22F026
:102A9000CFFC0AF1010AE0E72B68DB6833444FEA18
:102AA000481BDB68204633F80B1022F0C1FC2B6872
:102AB000DA6832442046D3685B4408F1010859883B
:102AC00022F0B6FCD8E74FF0FF30A5E7F105C200D1
:102AD00022560020EC5400204C2B002070B50C46F0
:102AE0000C480D4E154619F042FBA1880B4819F011
:102AF0003EFB0024AB88A34204D8BDE870400848E0
:102B000019F035BB2B683046195D19F030FB0134E4
:102B1000F0E700BF7679020044790200877902006D
:102B2000F47B020038B583680B491D694FF60A0231
:102B30001A8182229A72044628461FF030FB6521D2
:102B4000284622F063FC28460A2122F05FFC20463A
:102B5000BDE838401FF0BBBAF105C00010B5084B06
:102B600008491A7800239A4202DC4FF0FF3004E053
:102B700031F82340844201D158B210BD0133F2E74D
:102B800022560020EC54002038B505460C46FFF7CD
:102B9000E5FF431C0D4B0BD10D490A7803EB820076
:102BA00023F8225001231A448470C3700A7038BD80
:102BB00003EB8000C37890F9022013FB024101333C
:102BC000C37091FBF3F18170F1E700BFEC5400207A
:102BD00022560020074B88881B88834209D013683F
:102BE0001B78772B05D14B7A1BB991F90810FFF7A9
:102BF000CBBF7047B455002038B5836809491D69BB
:102C00004FF478421A81852204469A7228461FF0B2
:102C1000C6FA2846792122F0F9FB2046BDE8384063
:102C20001FF055BAF105C2000D4B1968F0B549B156
:102C30000C488F68048800221546D3B29F4202D800
:102C400005B10480F0BDCE684FEA031C06EB031308
:102C500001325B884D2B04BF36F80C400125ECE7B0
:102C60004C2B0020B4550020014B1860FFF7DCBF4F
:102C70004C2B0020074B1A691268520648BF80F09F
:102C8000010020B19B68DB680248402118479B681F
:102C90001B69F9E7F468020030B50A4C0A44914216
:102CA00000D130BD11F8013B58400309E35C83EAD1
:102CB0000013DDB2C3F30313E05C80EA0510C0B279
:102CC000EDE700BF8C7902000B6801330B60014B0C
:102CD0001B68184774030020014B1860704700BF41
:102CE0007403002007B50B460021024601910348FA
:102CF00001A900F0F9F803B05DF804FBC92C00004D
:102D000030B585B0CDE901010446002501A905488B
:102D1000039500F0E9F8DDE902309842B8BF255488
:102D200005B030BD49C101002DE9F84FB0F8189049
:102D300019F00808044693460DD001290CBF49F04C
:102D4000100949F02009A0F818908BF31188BFF3FF
:102D50006F8FBDE8F88F09F00709022907D12046D7
:102D600019F039FA0028F0D00128238B4ED1676979
:102D7000218B002F15DA256821F00701C4E90088AE
:102D800041F0010121830026218B01F0070ACA4589
:102D900002D0A368002B5AD10DB9002E71D00023A8
:102DA00056E001F007035A1F012A1ED821F007013F
:102DB000062B256889B2C4E900880AD13DB1638B2E
:102DC0002A46126801339BB2002AFAD1638341F08C
:102DD00002012183204619F0FEF906460028D3D0CF
:102DE000238B43F020032383CDE7042B0CD121F068
:102DF000070189B22183204619F0EDF90546002824
:102E0000C1D041F0200121830025BCE7032809D16E
:102E1000226923F00703166843F006032383002585
:102E20002F46B1E7042806D1226923F0070356682C
:102E300043F00403F2E7052806D1226923F00703D3
:102E4000966843F00503E9E700252E46E8E70123ED
:102E500041F0080121838BF31188BFF36F8FFBB919
:102E600085BB16B11F492046B0474FF02003EFF352
:102E7000118B83F31188BFF36F8F238B23F008032B
:102E80002383238BDA0625D523F010032383012126
:102E9000B4F8189009F0070900297FF45EAF54E7F1
:102EA000A1680029DCD0D1F80090D1F804B03B46ED
:102EB00052462046D847B9F1000FD1D04946D9F83B
:102EC0000090F2E729463B46524620462D6819F00D
:102ED0009EF9C5E713F020011EBF23F020032383D2
:102EE0000221D5E73BC201002DE9F04F91B08B469E
:102EF000029092461C4600259AF8000008B9284620
:102F00005FE325280AF1010707D0029B594698473D
:102F10000028C0F25683013512E2182200210AA8C7
:102F20001BF074FE9AF80130252B78D00022104651
:102F3000964694461646394617F8013B2B2B00F06F
:102F40009D8000F29480202B00F09B80232B00F0CA
:102F50009B802EB19DF8306046F004068DF83060FD
:102F6000BCF1000F05D09DF8306046F008068DF8E2
:102F70003060BEF1000F05D09DF8306046F01006BD
:102F80008DF8306028B19DF8300040F020008DF8B9
:102F900030002AB19DF8302042F040028DF83020F8
:102FA0009DF8302002F04400442803D16FF38612CC
:102FB0008DF830209DF830202A2B42F080028DF8C9
:102FC00030207BD19DF8312042F001024B1C8DF85E
:102FD00031201A782E2A9DF831200CBF01210021C2
:102FE00061F341028DF8312074D15A782A2A6AD0CF
:102FF000013300210A26184610F8012BA2F13007F0
:10300000092F40F28E809DF830200E91C2F34000CF
:1030100040EAD17161F341028DF830205AE00AF1A3
:1030200002078DF833309DF83130D90740F14981DE
:1030300054F8049BB9F1000F07DA9DF8302042F0F4
:1030400004028DF83020C9F100095A0740F142818D
:1030500054F8048BB8F1000F80F241819DF83130B3
:103060006FF341038DF831304FF0FF3837E12D2BEE
:103070000CD0302B7FF46DAF01225CE74FF0010CD8
:1030800059E74FF0010E56E7012054E7012652E7B9
:103090000CFB0202303A33461E4616F8010BA0F133
:1030A0003007092FF4D9994293D09DF830100D9232
:1030B000D20F62F341018DF830108AE70B460022EF
:1030C0004FF00A0CE8E79DF8312042F004028DF839
:1030D000312002331F4617F8012B6C2A41D025D826
:1030E000682A2BD06A2A46D04C2A4CD01F4617F8A3
:1030F000012B9DF831308DF83320782A00F2D980E9
:10310000572A4DD8412A03D0453A022A00F2D180ED
:103110009DF83230042262F302038DF8323001232D
:103120009EE006FB01213039034664E7742A26D06D
:103130007A2ADBD19DF8313006220DE05A78682AD0
:103140009DF8312006D1012161F3C6028DF83120AE
:103150009F1CCCE71346022262F3C6038DF8313080
:10316000C5E75A786C2A9DF8312001D10421EBE79C
:1031700013460322F0E79DF831300522ECE79DF875
:1031800031300722E8E7BDF8303023F4F04323F074
:10319000020343F4804343F00203ADF83030A6E766
:1031A000A2F15801202900F2848001A050F821F0FA
:1031B00075320000B3320000B3320000B3320000B9
:1031C000B3320000B3320000B3320000B33200006B
:1031D000B332000011310000B3320000753200003C
:1031E00035320000113100001131000011310000B2
:1031F000B332000035320000B3320000B3320000B9
:10320000B3320000B33200007D320000753200009E
:1032100099320000B3320000B3320000993200004E
:10322000B332000075320000B3320000B332000048
:10323000753200009DF83210012003F0780360F32E
:103240000201402B8DF8321002BF9DF8301041F082
:1032500001018DF83010632A31D1003B18BF0123E2
:103260009DF83020C2F340010B4363F341028DF817
:103270003020D8E69DF832100220DEE79DF832209B
:1032800003F07803A3F14000032161F302024342FB
:103290008DF832204341E3E79DF83220032113F0FB
:1032A000780F61F302028DF8322014BF012300234E
:1032B000D6E79DF8303043F001038DF8303000231D
:1032C000CEE79DF93020002AB4BFDDF834904FF0EE
:1032D000FF39BAE69B077FF5C7AEDDF838809DF869
:1032E00031100023CDE90D339DF8323003F0070390
:1032F000012BC1F3C30138D1CB1E042B22D8DFE848
:1033000003F003090921210054F8043BDA17CDE941
:103310000A3206E0073424F00704F4E80223CDE97A
:103320000A239DF8303013F0030656D002983B462E
:103330005246594619F036FB0028C0F24281054436
:10334000BA46D9E554F8043B01294FEAE372CDE9C6
:103350000A3205D19DF828300A9300230B93E0E749
:103360000229DED1BDF92830D0E7022B23D1CB1EB4
:10337000042B13D8DFE803F0030A0A1212002268B4
:103380000A920023201D0B930446CAE7E01D20F09B
:103390000700F0E80223CDE90A23F5E754F8043BDF
:1033A0000A9301294FF000030B93D3D00229B8D11F
:1033B000BDF82830D0E7042B09D1E31D23F0070323
:1033C00003F10804D3E90023CDE90A23A9E7032B7D
:1033D00004BF54F8043B0A93A3E79DF83300782810
:1033E000AED8622822D825283FF48FAD5828A7D11F
:1033F0000DF126030093DDE90A0104AB0CAA19F0D4
:103400008BFA8246B8F1000F0DF126000CDB9DF817
:103410003020A0EB0A036FF3861298458DF8302018
:1034200002D9A8EB03030D9380463DE063381528CD
:1034300086D801A252F820F0B93400001D350000F2
:1034400041330000413300004133000041330000AC
:103450001D350000413300004133000041330000BE
:103460004133000077350000453500004935000044
:10347000413300004133000091340000413300002B
:103480004535000041330000413300004535000060
:10349000B8F1000FDDF828A00ADB414650461BF0CA
:1034A00053FB0AEB00080026BAF1000F0CD147E7E6
:1034B00050461BF042FBF4E70A9B8DF810300026C3
:1034C0000DF1100A0DF11108A8EB0A0306B1013342
:1034D0009DF83220D00668D5023352060D9948BFB8
:1034E0000E9A0B4448BF9B18B9F1000F76DD9DF88A
:1034F0003020A9EB0309C2F38003039353076DD473
:10350000500661D546B1029B59463046984700287F
:1035100057DB039B01351E46302356E01E070FD4B0
:1035200013F0100618BF2026DDE90A23002BBFF692
:103530005FAF524263EB4303CDE90A232D2657E7E1
:103540002B26F1E7002653E70A9840B30DF1260336
:1035500000930CAA04AB002119F0DEF9BDF832305B
:1035600003F0EF0343F4F04343F010038246ADF859
:103570003230002646E70A9B07293FF6E1AEDFE836
:1035800001F00C04060C08080C0C1D70D8E61D8018
:10359000D6E6EA17C3E90052D2E61D60D0E6DFF8AE
:1035A000C8A006460AF105088EE7110748BF013397
:1035B00093E7184603935946029B98470028039BBC
:1035C00004DA11B0BDE8F08F20234D444A46002AAA
:1035D000A5EB090109F1FF39EBDC0D4636B1029B81
:1035E0005946304698470028EBDB01359DF83230CC
:1035F000D90601D41A0706D5029B594630209847B0
:103600000028DEDB01359DF83230DB0607D59DF85A
:103610003300029B594698470028D2DB01350D9EA6
:103620002E44731B002B16DC029843465246594623
:1036300019F0B8F90028C4DB0544A944A9EB050337
:10364000002B7FF77DAE029B59462020984700282B
:10365000B7DB0135F2E7029B594630209847002836
:10366000AFDB0135DDE700BF9C7902002DE9F743B0
:103670000F4606460821C06ADFF8509019F024FB77
:103680003C68241A80463C6004EA0905AC4203D831
:10369000002003B0BDE8F08308236A462146304687
:1036A00019F06CFA0028F4D16946304619F016FB7F
:1036B00040B1BDF80230BDF804203C6005EA0905C0
:1036C00013441D44A4EB0804E0E700BF0000FFFF23
:1036D0002DE9F04F044689B00D4600F11407384635
:1036E00022F0C2FB284617F0CBF9A062002800F0B8
:1036F0001F8183681B699847E06228B96FF0150540
:10370000284609B0BDE8F08FA06A83681B69984716
:103710000368013B1F2BF1D8A06A216805AA22F09B
:1037200008F80028EAD1A589002DE7D0069BB5FB53
:10373000F3F203FB1255002DE0D1E389012BDDD913
:10374000E36A009593F804804FF0FF334FF0FF32A7
:10375000384617F0A3FBE06A082119F0B5FAA9462C
:103760000646E3891FFA85FA534545D8E3894B4558
:1037700000F0D38053450BD1009908234246891BA2
:10378000204619F033FA18B9E089694619F091FA20
:1037900069462046FFF76AFF0546002840F0BF80D3
:1037A000009BDFF8E491636003EA0903A360D4E9B6
:1037B000011399420ED3082301AA204619F0DEF91D
:1037C000C0B901AB13F8012B904540F0C180013026
:1037D0000828F7D16368E0891B0C1B046946009335
:1037E00019F067FAA38900994246204619F0FEF9BC
:1037F000002826DA054692E0A1892B04891B13FADA
:1038000081F1424608232046009119F0EFF978B182
:10381000E089694619F04DFA09F101090099082378
:10382000424620461FFA89F919F0E0F900289DD098
:10383000013596E7BAF1000F00F0A2806FF01C0589
:103840006DE045D06368334400934FF6FF780099EC
:10385000A3898AB29B1B9A4215D36168204619F04E
:10386000EAF90028C6D16368474AA18913400B448E
:10387000A3EB460363601340A360204619F020FBCE
:10388000002840D0B6E7082303AA204619F076F9AD
:103890000028AFD103A9204619F020FA38B1BDF8AD
:1038A0000C30434503D1BDF81030002B43D0009BB2
:1038B00033440093CBE75B1A4246204619F096F951
:1038C000002897DB08D0E26AA36812681344A3605B
:1038D000D4E901318B42EED86168A38901EB46023D
:1038E0009A42CDD1DFF8A080A36801EA0802934292
:1038F000C6D0204619F09FF900287FF47BAF63689B
:1039000003EA0803A360A089A388A0EB4606B3429C
:1039100005D1204619F073FA6CE76FF02C05384694
:1039200017F034FB002D7FF4EBAE01232374E7E6A0
:103930006FF00505E4E66368E0891B0C1B0469462B
:10394000009319F0B6F90099204619F074F997E739
:1039500001A9204619F0C2F9D4F804B080B1009A48
:10396000BDF808A0BDF80610E06A02EA0902A260EC
:10397000514419F0A9F902445A45A2603FF45AAFE4
:10398000ABEB0603636012E70000FFFF2DE9F04F89
:103990001E46037C89B0044689469046002B00F001
:1039A000B280C26A0821104619F08EF9314682466B
:1039B000104619F089F9A389A3EB8A039E420746B2
:1039C00000F2A4801EB1B8F1000F00F09F80636880
:1039D000039304AA03A92046DDF80CB019F024FAD9
:1039E000054600285AD1BDF810304B4505D0626815
:1039F000039B9A42EDD1DEB950E004A9204619F0AC
:103A00006DF90028F3D0BDF8143086B19E420FD175
:103A1000BDF812004FEA1B410904014433464246F7
:103A2000204619F0B9F8002802DC054636E0ABB3B1
:103A3000002F37D104F1140A4FF0FF324FF0FF335B
:103A4000504617F02BFADFF8CCB0E3899D4257D0EF
:103A5000D4E90123F9188A4227D3ADF81A3006A811
:103A6000FF238DF81E30ADF81890ADF81C6019F0EA
:103A700017F932464146204619F09DF9034638B9F8
:103A800006A9204619F0AAF9002814BF03463346B8
:103A90000193504617F07AFA019B1D46284609B05B
:103AA000BDE8F08F5744BFB2C4E70821E06A19F0BF
:103AB0000BF94FF6FF73ADF818300023ADF81C304A
:103AC0001318ADF81A30A38902EA0B021A44121A2D
:103AD000626006A819F0E4F806A9204619F07EF9FC
:103AE000E089211D19F0E5F8636803EA0B03A36080
:103AF000204619F0E5F903460028C9D10135A4E7AD
:103B00006FF01B03C4E76FF00C05C7E76FF01505F6
:103B1000C4E700BF0000FFFFF0B5104B104C114D83
:103B20001B1B9B106B43104DD5F824C000259D42F4
:103B300002D16FF08500F0BD676867450AD326693A
:103B400046B197F802E00779BE4503D13346BDE898
:103B5000F040184701352434E9E700BFA8100020E1
:103B600084100020398EE338502B00202DE9F047D7
:103B7000174D184C184BDFF864A0641BA4100646C0
:103B80000F4690465C434FF000094C4503D16FF05F
:103B90008500BDE8F0876A68DAF824309A4212D3CB
:103BA000AB6983B190783179884205D14246394674
:103BB0003046BDE8F04718475279012A03D1424602
:103BC00039463046984709F101092435DDE700BF41
:103BD00084100020A8100020398EE338502B0020DC
:103BE0002DE9F8430E4D0F4C0F4B641BA4100646F5
:103BF0000F4690465C434FF000094C4502D16FF0F0
:103C000085000BE06B691BB909F101092435F4E764
:103C100042463946304698470028F5D1BDE8F8833A
:103C200084100020A8100020398EE33807B583786F
:103C30008DF800300379427943EA0223ADF802306F
:103C4000C378684603F003038DF8043001F0F8FFF1
:103C500010F1780F04D018B1002003B05DF804FB18
:103C60009DF8000002F072F810F1780F01D00028E2
:103C7000F2D1024B012083F8B900EEE7502B00206F
:103C800008B509480378C3F341130A3350F82330C9
:103C90003BB100F1080200F110019847C043C00F8A
:103CA00008BD1846FCE700BF502B00202DE9F04F5F
:103CB000A94EB36985B007460D46904663B93B7877
:103CC00003F01F03012B00F08E80022B00F0F08028
:103CD00043B16FF0150002E098470028EFD105B01E
:103CE000BDE8F08F7A787888D8F80030092AF0D8C3
:103CF00001A151F822F000BF213D0000D33C00009B
:103D0000D33C0000D33C0000D33C00002F3D00001A
:103D1000393D0000D33C0000673D0000713D0000CC
:103D20000020012258701A7002232B60D7E7C0B21E
:103D300001F074FF0020D2E7020A131F012BC8D93B
:103D4000072AC6D8736AC0B200211C78002CC0D0E4
:103D50005E78964203D1884200F01E8101312344EF
:103D6000F3E71B781EE196F8BA201A70012319E1D7
:103D7000C7B28DF80F7077B14FF0FF08746A002555
:103D8000C14623787BB9F3691BB10DF10F01032004
:103D90009847002D9DD07148082200211AF036FF67
:103DA00086F8BA70C6E76378042B0DD0052B0ED0C9
:103DB000022B06D194F805809DF80F30434508BFCB
:103DC000012523781C44DCE794F80390F9E79DF87B
:103DD0000F304345F5D1B9F1000FF2D12046FFF77E
:103DE00025FF0546EDE796F8BA30002B3FF471AF9A
:103DF000746AB7F804C097F8049023461A78002A2A
:103E00003FF467AF5978022903D11879484500F289
:103E1000CB801344F2E70C44217800293FF459AFDA
:103E20006378042BF7D1A3789C45F4D1072B96BF78
:103E30009B19002393F8BB30137097E797F8028023
:103E400006EB0903FF27BA464FF0000B00932378D7
:103E50003BB9F36913B15946072098470020286001
:103E60003DE76378042B04D0052B11D023781C4444
:103E7000EDE7A77894F803A0B945F7D1D045F5D17F
:103E8000B9F1070F02D8009B83F8BB80A346EDE78A
:103E9000B945EBD1D04507D0A078019000F0AEFC39
:103EA000019801F07DFFE1E72046FFF7BFFEDDE767
:103EB0003879D8F800408DF80F0030F0800C1ED013
:103EC000274A284B28499B1A9B104B434FF0000E62
:103ED00073453FF4FEAE116A92F81CA04FF0000843
:103EE00004395FFA88F9CA4503D80EF1010E24326D
:103EF000EEE708F1010811F838908145F1D17B789F
:103F0000012B12D0032B31D0002B7FF4E2AEBCF199
:103F1000000F04D096F8BA30002B3FF4DAAE2146F9
:103F200001F0F8FE00206070FEE67B88002B7FF435
:103F3000D0AEBCF1000F04D096F8BA30002B3FF49D
:103F4000C8AE01F0C7FEF369002B3FF4F3AE0DF1EC
:103F50000F0109209847EDE6502B00200B2C002084
:103F600084100020A8100020398EE3387B88002BB5
:103F70007FF4AFAEBCF1000F04D096F8BA30002B3E
:103F80003FF4A7AE01F07EFEF369002B3FF4D2AE02
:103F90000DF10F010820DDE7022AC8F800307FF498
:103FA000E0AE5B882B60C5E67878D8F800200A2858
:103FB0003FF432AF0B283FF441AF00287FF489AEC5
:103FC0001070507029608AE62DE9F14F2A4B2B4C76
:103FD000E41A2B4BA410042805460E4603FB04F4F8
:103FE0001FD12848082200211AF010FEDFF898900F
:103FF00099F8B930BBB100F01FFC042D13D11E4F4E
:104000004FF00008444525D0D7F820B04FF0000A03
:104010003A7F5FFA8AF39A4213D808F101082437ED
:10402000F0E70528E2D0144F4FF00008A04515D165
:10403000154B1B6AE3B13146284601B0BDE8F04F8D
:1040400018470BEBC3030AF1010A187901F0A8FE27
:104050000028DDDA002389F8B930E4E7FB681BB1FA
:10406000324629463846984708F101082437DDE7EB
:1040700001B0BDE8F08F00BF84100020A810002020
:10408000398EE3380B2C0020502B002037B5134C11
:10409000237D0546BBB9E268A168019201AB80208F
:1040A00019F025F80199A268E3680A445B1AA26036
:1040B000E36033B923699D4203DD9B0601D10123EF
:1040C000237503B030BD00231A461946802023759E
:1040D00003B0BDE8304001F089BE00BF502B002086
:1040E00030B585B00B4600210246019100285ED113
:1040F000002B3AD108220DEB020119F035FB002804
:1041000004DA802001F0BEFD05B030BD2D4C9DF8D5
:1041100009306370BDF80A306380BDF80C30A380AD
:10412000BDF80E309DF808202270802BE38006D960
:10413000D10904D1802001F0A5FD0020E2E7224949
:104140002361C4E90213002121750BB1D309DBD02F
:10415000FFF796FD0028D4D0E08823698342D4BFBE
:10416000E360E060FFF792FFCEE7164CD4E902155A
:10417000002D01AB04DC19F0F7FA0028C4DAC0E71F
:104180002A4619F0F1FA0028D4DB0199A268E36805
:104190000A445B1AA260E360002BB5D104F1380336
:1041A000A360FFF76DFD0028ABD0E088DAE7802838
:1041B000AAD1044BDA6812B91A7D002AA4D0D88893
:1041C000D0E700BF502B0020882B0020054B064A6B
:1041D0009A62064ADA62064A1A63064A58629A6185
:1041E00000207047502B0020AD3C0000193B000020
:1041F000E13B00006D3B0000074B10B593F8B84061
:1042000024B900F0AFF918B1FFF7E0FF002010BDAE
:104210004FF0FF30FBE700BF502B00202DE9F743A4
:104220000446384D38484FF0FF324FF0FF3316F058
:1042300035FE95F8B860002E41D134482C62E86113
:1042400001F0EAFE01F0ACFC041E39DB00F01CFBBF
:10425000041E35DB40236846ADF802308DF804605B
:104260008DF8006001F0ECFC041E29DB8027684615
:104270008DF8007001F0E4FC041E21DB2449304677
:1042800001F0B6FE041E1BDB2149384601F0B0FEEA
:10429000041E15DB1F4F204C204BE41BA4105C4375
:1042A000B44214D1002001F051FD041E08DB80202F
:1042B00001F04CFD041E03DB012385F8B830002417
:1042C000114816F063FE204603B0BDE8F083D7F82E
:1042D00020904FF000083A7F5FFA88F39A4202D8A4
:1042E00001362437DCE709EBC30259F833101079A3
:1042F00001F07EFE08F101080028ECD04FF0FF34F9
:10430000DEE700BF502B0020C40D0020C93F000095
:10431000E140000084100020A8100020398EE3380E
:1043200030B51C4B89B003AA03F110051868596811
:10433000144603C40833AB422246F7D11B782370DE
:104340000822002101A81AF061FC12220021124863
:104350001AF05CFC082101A819F015FA002816DDF6
:104360000D4901AA002012F8013B08AC04EB13141C
:1043700003F00F0314F8144C0C7008AC2344013004
:1043800013F8143C4B70082801F10201EBD10248EC
:1043900009B030BDA2790200235600202DE9F04F6C
:1043A0006B4A6C4B9B1A6C4A87B09B105343044674
:1043B000019300254FF0011BA9462E46AA462078FE
:1043C00020B9664B02349C4217D0F2E76378052B84
:1043D00005D8DFE803F083040383072BA246237884
:1043E0001C44ECE7E378002BF9D1A3789BB9584A39
:1043F0000199994204D14FF0FF3007B0BDE8F08F2A
:1044000051688C4202F124020AD1514A242606FB4B
:104410000326B36833B909F101095FFA89F9DEE7C8
:104420000133E5E7494620469847F4E7002EE2D0FD
:1044300000230121327F9342DDD2326AA77802EB5A
:10444000C3021079874201D00133F3E70127E078F6
:1044500094F805C000F003008DF81400207940EABC
:104460000C20ADF8120094F9020000285FFA87F8DA
:1044700028DA07F1100001FA00F010EA0B0F29D139
:1044800068F07F008DF8100004A8CDE9023219F021
:1044900053F9DDE902320121E0B99DF81030A37033
:1044A00013F0800F1CBF08F110085FFA88F8137131
:1044B0000B4615BF01FA08F8BB404BEA080B4BEA64
:1044C000030B8CE701FA07F010EA0B0F02D18DF80D
:1044D0001080D9E70137102FB9D1B5E7032D1DD1D1
:1044E000FFF71EFF074668B11AF027FB804648B168
:1044F0001B481AF022FB804504D142463946A01CD5
:104500001AF059FB23786FF00201E218091B04EB43
:104510005303D14213D50135EDB260E7002DF1D13F
:10452000BAF1000F3FF467AFA4EB0A038AF8023038
:10453000C3F307238AF803308AF80490EBE74FF0BF
:10454000000002F8010C13F8010902F8020DE0E77F
:1045500084100020A8100020398EE338811000203C
:10456000A279020008B50448FFF718FF00280248A6
:1045700018BF002008BD00BFA80F002010B5094BD0
:1045800000211A461C78844205D15C681CB1482081
:1045900000FB012010BD0131042903F14803F1D1D2
:1045A0000020F7E7142C00202DE9F34150F8303CAF
:1045B00010F8346C1033044610D1036950F8282CDD
:1045C00099073CD502BB13F0040304D11A461946DF
:1045D000304618F08CFD002344F8303C54F8303C51
:1045E00010330ED054F8205C5DB154F8247C54F89C
:1045F0001C8C21F01FFC00284CD02E48214621F0B5
:10460000B0FD02B0BDE8F08150F82C1C01AB304683
:1046100018F06DFD10B16FF01503DDE7019A54F845
:104620002C3C134444F82C3C54F8283C9B1A44F886
:10463000283C54F8243C134444F8243CCEE750F87A
:104640002C1C01AB304601F049FC0028E3D1019D50
:1046500054F82C3C2B4444F82C3C54F8283C5B1B6D
:1046600044F8283C54F8243C2B4444F8243C002DC6
:10467000B1D0304601F0D6FCB5FBF0F303FB10558A
:10468000002DA8D154F8283C002BA4D0304601F0CE
:104690006DFCA3E744F8200CA4F1180016F0ECFC24
:1046A00054F8303C8C33ACD0424639463046A847AB
:1046B000A7E700BFD81100204B1E012B73B506469B
:1046C0000D460FD8FFF75AFF044668B9012D09D1EE
:1046D00001AB01220DF10301304601F0FFFB019B0C
:1046E000002BF5D102B070BD21F0A4FB04F1340120
:1046F00008B1012D05D1084602B0BDE87040FFF7B2
:1047000053BF034802B0BDE8704021F02ABD00BF8E
:10471000D81100202DE9F74F06460191154698461D
:1047200018F037FD044600285FD14FF02003EFF367
:10473000118A83F31188BFF36F8FDFF8B4B04FF0A5
:10474000480909FB04F700220023584616F0BAFC7A
:1047500068B9DFF8A09009EB0704636813F1100F44
:1047600014D10193584616F087FC019B06E00134F2
:10477000042C0BF1480BE4D16FF00B038AF3118882
:10478000BFF36F8F184603B0BDE8F08F019B206127
:10479000C4E902350C9B63610D9BA3616FF00F03AD
:1047A00009F80760C4F844806360304601F03AFCC1
:1047B00058B1304601F036FCB5FBF0F202FB105563
:1047C0001DB1636C43F00403636418F0020F07D05B
:1047D0003437094809EB070121F0C3FC0023CDE77A
:1047E000304601F0C3FB0346C8E76FF00F03C9E78B
:1047F000302C0020142C0020D811002010B54FF0D0
:104800002003EFF3118483F31188BFF36F8FFFF759
:10481000B5FE50B14368103307D16FF08B0343608E
:1048200000F13401034821F09CFC84F31188BFF3AC
:104830006F8F10BDD81100202DE9F041104CDFF82A
:10484000448004256FF08B074FF02003EFF31186AF
:1048500083F31188BFF36F8F6368103305D104F1C0
:1048600034014046676021F07CFC86F31188BFF379
:104870006F8F013D04F14804E6D1BDE8F08100BF2F
:10488000142C0020D811002070B50A4C0A4E0025C7
:104890003146204621F05CFC0122A4F118001146AB
:1048A000013521F0D5FB042D04F14804F0D100209E
:1048B00070BD00BF482C0020A945000070B504461B
:1048C0000E4601791048154618F038FCB0B16378EF
:1048D000212B0ED0222B08D0202B12D129680722A1
:1048E0000C381AF068F9002070BD638800F8053CA8
:1048F000F9E70C38072328603360F4E76FF0120003
:10490000F2E76FF01500EFE7382D002008B50146FB
:10491000034818F024FC10B1012300F8033C08BD43
:10492000382D00200169012381F843300B6833B131
:1049300091F841301BB10248203121F012BC704780
:10494000D81100200169012381F842300B6833B18E
:1049500091F840301BB10248203121F002BC704771
:10496000D811002038B5056995F8960078B195F80A
:1049700097306BB985F84030D5F8880018F054F8B6
:1049800005F130010446034821F0EBFB204638BD19
:104990000020FCE7D8110020012310B5144682F84E
:1049A000403002F1080016F067FB23683BB194F831
:1049B000423023B1094804F1200121F0D2FBD4F8A0
:1049C0008830D3E900329A4206D004F1300103481E
:1049D000BDE8104021F0C5BB10BD00BFD8110020BC
:1049E00073B5144602F144060A1E054604DDD4F8E8
:1049F0008400314618F018F8012384F84130236808
:104A00003BB194F8433023B1074804F1200121F071
:104A1000A8FB064B0093019401234022314628460F
:104A2000FFF778FE02B070BDD8110020E149000008
:104A30007FB5836E5B681B6A1E7D0546304618F0A5
:104A4000A8FBD0B9A86D4FF4806203A918F00BF849
:104A5000044690B18306A5F1300308BF00F1FF348E
:104A60000193074B03990093224602233046FFF738
:104A700051FEA86D214618F012F804B070BD00BFB9
:104A80009949000010B504690023C4F89C300F4B0D
:104A9000C4F89800596804F19C02A1B9C3E9002246
:104AA0004FF0FF32002104F1080021F0D1FA04F1A7
:104AB0002000074921F04CFB04F13000054921F0AA
:104AC00047FB002010BD0A605A60E9E7382D00203E
:104AD000B9D10100314A000030B585B0A123056984
:104AE0008DF80430202342688DF80530002385F8C6
:104AF00095300220ADF80A00106AADF80C10ADF840
:104B000008300079ADF806300A2201A918F0EFFA52
:104B1000054C95F8953023B9012021F0E5FC013CC6
:104B2000F7D105B030BD00BFA186010010B5044625
:104B3000083016F0A1FA0D4B002118689A889B796D
:104B4000C4F88C00A4F89020A4F89610A4F84010A3
:104B500084F8923084F8941084F8931004F144009F
:104B60004022BDE810401AF051B800BF046D0200A9
:104B700038B50D4601461C4818F0D1FA0446B8B1C4
:104B80000246691E52F898395B68052910D8DFE89B
:104B900001F0100F0310151914F8021C19B91B6A43
:104BA000187BFFF71DFF012304F8023C04F8583C72
:104BB00038BDBDE838401046FFF7B8BF012304F800
:104BC000013CF5E714F8011C0029F1D014F8020C9F
:104BD000002104F8011C0028EAD01B6A187BBDE8FC
:104BE0003840FFF7FDBE00BF382D002037B5094D16
:104BF0000949002400944FF0FF334FF480622846A7
:104C000016F0ACFB0549284621F01AF9204603B0FE
:104C100030BD00BFD8110020605F0020B3790200D2
:104C2000084B30B51C68084B01461A6800239C42AB
:104C300001DC002030BD1046103205788D42F9D0DD
:104C40000133F4E7D86E020068040020084B1B68AB
:104C500010B50C462BB1FFF7E3FF28B12060002010
:104C600010BD6FF00C00FBE76FF00100F8E700BF2C
:104C70006804002030B589B00C4615460190FFF756
:104C8000CFFFB8B14368029383682268C068CDE95A
:104C900003350023CDE90623059318F059FB60B1D5
:104CA000074901AA20F049FD079808B9059B236030
:104CB00009B030BD6FF01500FAE76FF01200F7E7AA
:104CC00055D30100104B2DE9F0411C6805460E46F6
:104CD0001746ACB14FF0FF324FF0FF330B4816F0E0
:104CE000DDF863683246D3F8088029463B46204603
:104CF000C0470446054816F049F92046BDE8F08152
:104D00006FF00104F9E700BF482D0020B00D00202E
:104D100000230360044B5A6812B9C3E900007047CE
:104D200010605860704700BF402D0020014B186094
:104D3000704700BF482D002030B585B000230546E0
:104D4000CDE9023301904FF0FF330C484FF0FF32B2
:104D500016F0A4F80A4B1C6834B1636820461B683F
:104D600001A998472468F7E7284600F085F804462B
:104D7000024816F00BF9204605B030BDB00D0020FA
:104D8000402D00201FB5CDE9010103924FF0FF3304
:104D90000A484FF0FF3216F081F8094B1C6834B115
:104DA000636820461B6801A998472468F7E7034811
:104DB00016F0ECF8002004B010BD00BFB00D0020CC
:104DC000402D0020024B0022C3E90022704700BFA3
:104DD000402D0020024B0022C3E90022FFF7F2BF62
:104DE0004C2D00202DE9F34107460E4609B1002362
:104DF0000B601E4CDFF878800025444508D31D4B1E
:104E00001C680CB1143CC4B9284602B0BDE8F0815E
:104E1000216801AA384618F0C2FA60B125B90EB16E
:104E2000019B3360254606E029682068002218F0BF
:104E3000B6FA0028F3D11434DFE7216801AA384616
:104E400018F0ADFA60B125B90EB1019B336025466B
:104E500006E029682068002218F0A1FA0028F3D1A2
:104E600014F1140FD0D06469CBE700BF186B0200B7
:104E70006C6C02004C2D0020F8B51A4C1A4F0646F7
:104E80000025BC4206D3194B1C680CB1143C9CB9DC
:104E90002846F8BD1EB9E3684BB91434F1E7206821
:104EA0000022314618F07BFA0028F4D1F5E7984744
:104EB000002D08BF0546F0E736B9E36863B914F181
:104EC000140FE5D06469E0E720680022314618F04D
:104ED00066FA0028F1D1F2E79847002D08BF054691
:104EE000EDE700BF186B02006C6C02004C2D002037
:104EF00010B5064C23783BB9FFF76CFF00F064F85F
:104F000008B90123237010BD0020FCE7355E0020A6
:104F10002DE9F047048FDFF8ACA0013498B080464B
:104F20008946A4B200F10806651EADB2B5F5004F82
:104F300045D04A2305AA2946304618F0D1F804F591
:104F40007F543F34A4B20746214601230DF10B02E2
:104F5000304618F0C5F8002F014603DC002803DCBA
:104F60002C46E1E7002816DCB8F83830AB4209D10E
:104F700042466B1E22F8383F4FF400410223304670
:104F8000FEF704FD2946304618F04FF8214630461A
:104F900018F04BF8E4E718AB1F44002307F84C3C2B
:104FA0005246CDF8009003AB05A80396ADF810402B
:104FB00018F02EFA0028D3D018B0BDE8F0870020F2
:104FC000FAE700BF77D401007FB5012369460320CB
:104FD0000193FFF73BFE0446002836D102AA01A93F
:104FE0000320FFF747FE10F1130F04462DD038B110
:104FF0000C3405D0404080F311884FF0040002DFEC
:105000000399B1F5803F23D2009A00239568184692
:10501000084485429CB203D30133082BF8D11C46C7
:105020000D4D5368AB602846D368EC82A982EB63D0
:1050300018F0B8FA044640B9084E6E602846FFF7EB
:1050400067FE28466E60FFF771FE204604B070BD13
:105050006FF02004F9E700BF542D00206C040020FD
:10506000F8B505464FF02003EFF3118683F311885E
:10507000BFF36F8F094B1C685CB1094FD4E9013253
:10508000002D08BF13460BB1387898472468002CD0
:10509000F4D186F31188BFF36F8FF8BD942D0020F3
:1050A0009C2D0020084B10B51C685CB901221A60C9
:1050B000064B93E8070019F0E2FD2046BDE81040DA
:1050C000FFF7CEBF10BD00BF7C0400209C2D002048
:1050D000F0B585B06E4601460546304618F07EFABA
:1050E00096E80700144C84E807002078274600B3B0
:1050F000124B002119606B1C0DD0114816464FF45D
:10510000004C104A0023E6FB0C01FBF7F9FF0121DC
:10511000281A21F0C9F916F015FA0120FFF7A0FFAF
:1051200097E8070019F098FDFFF7BCFF16F0C2FAE8
:10513000207805B0F0BD00BF9C2D00207C0400202D
:105140003F420F0040420F0010B50748074C15F0D2
:1051500097FC074B1860204601F0D0FC2046FDF775
:10516000BBFD002010BD00BF6C790200755100002E
:10517000A82D00200A2838B5074D044604D1286818
:1051800083680D215B68984728688368E1B25B6893
:105190009847204638BD00BFA82D0020084B70B5A9
:1051A000C31A0D4607499B1004465943064840223E
:1051B00018F035FA2B4601462046BDE870401847E6
:1051C000C02D0020B76DDBB69468020073B50C4C9F
:1051D0000C4A4023041B00930D460B460A49A410B9
:1051E00061430646094818F046FA011E05DA3046C2
:1051F0002B4602B0BDE87040184702B070BD00BF3A
:10520000C02D0020E7D60100B76DDBB69468020020
:10521000002270B501210446104601F0A7F90020D4
:1052200001F072F90F4814F079FA0F4B984215D13A
:1052300014F084FA26690D49304617F01BF800284F
:105240000BDB246909490125356404F11C0017F0C2
:1052500011F8002801DBE564002070BD6FF0040048
:10526000FBE700BFA55200000000AD0B006F02007D
:1052700001460C2309484B4370B5C418D4E90E56B7
:1052800000224033A263184418F0B6F92DB132461B
:105290002B460348BDE87040184770BDC02D002064
:1052A0009468020010B1012804D07047034B1B6CB6
:1052B0005B0701D1FFF7DCBF704700BFC02D0020A6
:1052C00008B54FF02003EFF3118183F31188BFF38A
:1052D0006F8F124A136843F0020013F0010310604D
:1052E0000CD04FF08042D2F80C34D2F80C2413F0DA
:1052F000010303D00A4818F07FF9012381F31188D4
:10530000BFF36F8F23B1BDE808400020FFF7B0BFA7
:10531000BDE80840012020F0BEBB00BF102E0020D9
:10532000002E00207FB500220123CDE9022304AB2B
:10533000CDE90433094ACDF800D06B46CDF804D04E
:1053400018F0CAF9002805DB4FF4804200236846B4
:1053500015F0B8FE07B05DF804FB00BF05D70100EB
:10536000094BBFF35B8F53E8002F22F0020143E8A3
:1053700000100028F7D1BFF35B8FD30702D40120C0
:1053800014F0EAB9704700BF102E0020024AC3B2E1
:105390001C2003FB00207047C02D0020094BBFF3E9
:1053A0005B8F53E8002F42F0010143E80010002812
:1053B000F7D1BFF35B8F930702D4012020F06BBBC2
:1053C000704700BF102E0020094BBFF35B8F53E8DE
:1053D000002F22F0010143E800100028F7D1BFF3AD
:1053E0005B8F930702D4012014F0B6B9704700BF59
:1053F000102E00202DE9F0413949BFF35B8F07469D
:10540000012251E8003F41E800200028F9D1BFF314
:105410005B8F33B9334934484B60CB608A6016F0F8
:105420003CFF7B1E012B2FD8012F07D14FF080436B
:10543000D3F81C3403F00303012B25D020F0FAFC31
:10544000044618B9294B1B78002B41D14FF020039B
:10545000EFF3118683F31188BFF36F8F0124DFF818
:1054600090804FF08045D5F81834D5F81824D20331
:105470000CD503F00303012B01D0012F06D10CB38F
:1054800086F31188BFF36F8FBDE8F081ACB1304671
:1054900001F0EEF8D5F81835002BE4D1D5F8042149
:1054A000002AE0D0C5F80431D5F804310123C5F84D
:1054B0001835C8F88031AB60D5E70021212016F0FF
:1054C000BFFAE7E74FF080430222C3F80423DBE78B
:1054D0004FF080430222C3F808230646BFE700BF0F
:1054E000142E0020B02D0020DC2D00204B5F00206A
:1054F00000E100E000F07F03082B42B204D010F07E
:10550000780F01D000207047002A00F00F0300F050
:10551000080005DA58B9084800EB43104C307047D2
:1055200038B9054800EB431000F5B67070470348E2
:1055300070470348704700BF1834002064350020CE
:10554000843600200146014820F031BD500E002075
:105550000149024820F005BE4034002078120020A6
:1055600013B50B4814F0FAF900240A4814F03CFA79
:105570004FF0FF334FF4806207490848009415F05C
:10558000EDFE0749074820F0E3FD204602B010BDBC
:10559000D87902000C6F020080630020781200208E
:1055A000BD5800004034002002480022002315F0BE
:1055B0002FBD00BF500E002010B5054CFFF7F4FFC3
:1055C00020B1011D204620F00CFCF7E710BD00BF04
:1055D0005C0D002007B500230E48002201A915F03C
:1055E0005FFB90B1FFF7E8FF0A480022002301A902
:1055F00015F056FB38B90198042340600374FFF797
:10560000A1FFFFF7A5FF002001E00198406003B073
:105610005DF804FB5C0D0020817870B506460846F5
:10562000FFF768FF0B06F578044612D5002D43D12D
:10563000FFF7D0FF034600283ED00122A577027471
:10564000032202739C60FFF77DFFBDE87040FFF707
:105650007FBF4DB1012D2FD1FFF7BCFF034658B3DB
:10566000657705740573EDE7FFF7B4FF20B3B278F3
:10567000124B12F0800F02F0080111D041B1D3F8A3
:10568000A836E36001230374022303738460DAE71E
:1056900002F00F02142101FB0233D3F80836F0E7C1
:1056A00011B1D3F8A837ECE702F00F02142101FB87
:1056B0000233D3F80837E4E770BD00BF0070024042
:1056C000022810B511D8094B1C5CFFF783FF60B1AD
:1056D000002202740472FFF735FF054B93F8243063
:1056E0001BB1BDE81040FFF733BF10BDD5790200F4
:1056F0001834002010B50F49BFF35B8F01F1200370
:10570000002253E8000F012803D143E80024002CB5
:10571000F7D1BFF35B8F0BD1CC690C31204616F06B
:105720002AFE783004D12046BDE8104016F0FEBDB8
:1057300010BD00BF18340020F0B5064689B0142211
:10574000002103A819F062FA3378013B052B21D818
:10575000DFE803F07A0314146A1603238DF814307B
:105760000024FFF737FF0346A0B1047400F10802DC
:10577000DDE9050182E8030018461DE00423EDE79A
:10578000B1780846FFF7B6FE837A044623B1013BA1
:10579000022B43D909B0F0BD0B06F57813D5002DC7
:1057A000F8D1FFF717FF03460028F3D00122A577B1
:1057B0000274032202739C60FFF7C4FE09B0BDE8C7
:1057C000F040FFF7C5BE55B1012DE3D1FFF702FF51
:1057D00003460028DED0657705740573EBE7FFF715
:1057E000F9FE07460028D5D0012303740223037372
:1057F000846004F10C01B07820F02DFA134AE168BE
:10580000B2F88C328B4206D95B1AA2F88C3214F0B3
:105810008FFE3846D0E7A2F88C52FAE7304609B03E
:10582000BDE8F040FFF7F8BE01A814F05BFE9DF85C
:105830000530052B04D19DF8043013F0600FA9D07A
:10584000034B059301248CE702248AE718340020D7
:105850008435002038B5002464F07F00C0B2FFF723
:1058600049FE013417F051FF082CF5D10F4D0024EB
:10587000E0B2FFF73FFE036903B90561013417F099
:1058800044FF082C05F14005F2D1094C04F5A6703F
:1058900017F03BFFD4F87C3213B9064BC4F87C32C6
:1058A000054817F032FF002038BD00BF1832002035
:1058B00018340020182E0020843600202DE9F043F3
:1058C000A74CDFF8A08285B00746FFF76DFE10B940
:1058D00005B0BDE8F08394F82530027C00F104099E
:1058E0003BB9002A00F085804946404620F079FA0D
:1058F000EBE7042AF8D8DFE812F07C00050002018B
:1059000018014101037B8568032BEDD8DFE803F024
:10591000023C595E6E6908220021304619F076F982
:10592000914B9248D3F880243270D3F8842472705B
:10593000D3F88824D3F88C1442EA01227280D3F879
:105940009024D3F8941442EA0122B280D3F8982428
:10595000D3F89C3442EA03230822F3803146EA60FC
:1059600019F029F92B68687A002198473378DB0908
:1059700006D1F38823B1A4F88C3214F0D9FDB3E733
:105980000023A4F88C32AFE76B7F002BACD02B7FC9
:10599000002BA9D000266E774FF0FF3274482E7787
:1059A0004FF0FF3317F0C4FE6B6901936B68CDE9CC
:1059B000023601A9687A14F0B9FB6D4817F0BAFEF7
:1059C00092E72B680121687A98478DE7AB7A6BB92B
:1059D000EB7F5BB966484FF0FF324FF0FF3317F0B3
:1059E000A7FE14F0D5FD624817F0A4FE2B68022133
:1059F000E9E7027A042A3FF677AFDFE802F05B03BB
:105A00002569750014F042FB054600287FF46CAF51
:105A100014F080FABFF35B8F5649012351E8002F41
:105A2000002A03D141E800300028F7D1BFF35B8F93
:105A30007FF45AAF41F8105C41F8085CE06963619B
:105A4000143916F02AFC4FE7002565F07F00C0B23C
:105A5000FFF750FD037A13B1407A14F08FFF013540
:105A6000082DF2D194F854311BB194F8550114F07B
:105A700085FF0025E8B2FFF73DFD037A13B1407AB8
:105A800014F07CFF0135082DF4D194F874321BB169
:105A900094F8750214F072FF012014F0D9FA012372
:105AA00084F825302368002B3FF41EAF002102202C
:105AB000984719E7002584F8255014F0EBFEFFF70E
:105AC00019FE2368002B3FF40FAF29460420EFE7AF
:105AD000002B3FF409AF14F0F5FE2368002B3FF4D0
:105AE00003AF00210520E3E72268002A3FF4FCAE63
:105AF000002B3FF4F9AE002106209047F4E607F1B1
:105B000010054FF0FF334FF0FF32284617F010FE1C
:105B1000FFF7A0FE284617F00DFE57F8283C002B93
:105B20003FF4E2AE00210120C2E794F874327BB169
:105B3000012584F8895284F88852FFF74BFD38B16B
:105B40000D4A057405738260FFF7FCFCFFF700FD4A
:105B500057F8283C002B3FF4C7AE00210A20A7E7E6
:105B6000183400205C0D0020007002401C3400201E
:105B70005034002038340020843600201FF0D8FF35
:105B800014F088FE14F0BCF9FFF716FDFFF762FE73
:105B90001FF0C7FF014814F083FAA5E6395700004B
:105BA00038B51A4D95F824405CBB05F1380020F05B
:105BB0005BF92046FFF7EAFB2246E8610121272036
:105BC00000F0D4FC124814F06BFA124B98421AD130
:105BD0001FF0A7FFFFF73EFE044610B9012385F82A
:105BE00024300D4B1B680BB1FFF7B2FC4FF0804324
:105BF000D3F83834DB0702D50020FFF761FD2046DB
:105C000038BD0024FBE76FF00404F8E718340020E7
:105C1000395700000000AD0B500E0020074B93F8E1
:105C200024203AB193F82530002B0CBF6FF01200FE
:105C3000002070476FF01200704700BF183400203A
:105C40000F4B93F8243010B50146B3B104782046C9
:105C5000FFF750FC10B96FF0150010BD44720B79BE
:105C6000837249884160230702D44B1E0B42F2D154
:105C700020461FF0EBFF0020EFE76FF01200ECE78B
:105C800018340020124B93F8242010B50146CAB1F5
:105C900093F82530B3B1FFF72DFC0446A8B1837A01
:105CA000012B12D007D9023B012B07D96369A361ED
:105CB0000020E06010BD14F073FCF7E7084614F014
:105CC000E3FBF3E76FF01200F4E76FF01500F1E784
:105CD0001834002038B50E4B93F82420054682B1C5
:105CE00093F825306BB1FFF705FC68B115F0080497
:105CF0000AD1284614F0EAFB284614F091FE20460B
:105D000038BD6FF01200FBE76FF01500F8E700BF39
:105D10001834002038B50C4B93F8242005460C4667
:105D200062B193F825304BB1FFF7E4FB48B141B1C4
:105D3000284614F0B1FB2070002038BD6FF012002F
:105D4000FBE76FF01500F8E718340020F8B5134FA3
:105D500097F824300446BBB1FFF7CCFB0546B0B141
:105D6000230705D4204614F0B1FB204614F058FE5A
:105D70002E7A7EB997F8250001232B7218B12046A0
:105D800014F0FCFD3046F8BD6FF01200FBE76FF039
:105D90001500F8E76FF07700F5E700BF1834002032
:105DA00038B5114B93F8242001469AB193F8253069
:105DB00083B1FFF79FFB054678B1037A83B10846AC
:105DC000002414F0AFFD2846AC7717F09EFC2C722F
:105DD000204638BD6FF01200FBE76FF01500F8E7C2
:105DE0006FF07700F5E700BF183400202DE9F0438D
:105DF000DFF8DC801C4698F8243085B007468946D9
:105E00001646002B5DD098F82530002B59D003069C
:105E10005AD5FFF76FFB0546002855D0037A002BB3
:105E200052D04FF0FF334FF0FF3208F1380017F037
:105E30007FFCAB7F4BB108F1380017F07BFC6FF0B3
:105E40000A04204605B0BDE8F08316B9EB7F03B124
:105E5000EE77AB7ABBB95EB1B8F80A30B34207D976
:105E60006A68B6FBF2F302FB13630BB90123EB770D
:105E700014F09EFBB84206D014F08AFB154817F0C8
:105E800059FC0024DDE70123AB774FF0000801A99E
:105E90003846CDE90196CDF80C8014F047F90E4B49
:105EA000984207D085F81E800CB1C4F800806FF0CE
:105EB000040402E00CB126604446064817F03AFCA0
:105EC000BFE76FF01204BCE76FF01504B9E700BF3D
:105ED00018340020503400200000AD0B2DE9F041B3
:105EE0001D46204B174693F824200E46002A33D037
:105EF00093F8253083B3030631D401B97FBBFFF794
:105F0000F9FA044658B3037A4BB34FF0FF331648FF
:105F10004FF0FF3217F00CFCE3689F42B84628BFF1
:105F2000984646B93FB905B12B600F4817F002FCFF
:105F30000020BDE8F081A1694246304618F03BFEE2
:105F4000A3694344A361E368A3EB0803E360002D66
:105F5000EBD0C5F80080E8E76FF01200E9E76FF0DA
:105F60001500E6E7183400205034002070B51E4DAF
:105F700095F82420034682B395F825206AB31B06C2
:105F80002ED4FFF7B7FA044650B3037A43B34FF069
:105F9000FF334FF0FF3205F1380017F0C9FBE3681B
:105FA000B3B9012663692677A361637F83B1FFF7E5
:105FB00011FB30B905F1380017F0BCFB6FF00B0096
:105FC00070BD067484600673FFF7BCFAFFF7C0FA71
:105FD000064817F0AFFB0020F2E76FF01200EFE782
:105FE0006FF01500ECE700BF18340020503400209B
:105FF00008B5084B93F824302BB1FFF77BFA28B192
:106000000160002008BD6FF01200FBE76FF0150083
:10601000F8E700BF18340020014B1860704700BF3C
:106020001834002008B5074B93F8243023B1FFF74C
:1060300061FA20B1406808BD6FF01200FBE76FF015
:106040001500F8E718340020044A1368C81A20F035
:106050007F400344136015F08DBE00BFB8360020AA
:106060002DE9F843860006F1804600F1500406F55C
:106070008836A400A4B204F180444FF48037D6F8E7
:106080004035DFF86C8021F07F4504F58834874087
:10609000D8F80495A3EB090323F07F4329F07F424E
:1060A000012BC6F8402502D1132020F01DFA09F17A
:1060B0000202AB1A23F07F43B3F5000F88BF1546E9
:1060C000002323602368C8F8447325F07F43C6F893
:1060D0004035D8F80435994506D0EB1A023B23F039
:1060E0007F43B3F5000F01D8BDE8F8832B46CFE717
:1060F00000100140F8B50025104C2F46104B1E68CB
:1061000005B1F8BDD4F80423D203FAD5D4F8402160
:10611000002AF6D0C4F84051D4F840214FF4803220
:10612000C4F84823D4F84015012526B15A681F60E9
:106130000020B047E2E71E60E3E700BF0010014027
:10614000AC36002038B50F4C00254FF48033C4F82E
:106150000855C4F804330C4B4FF40032C3F88021C7
:1061600001212A46112000F001FA112000F0CCF99B
:106170000123064AA360022023601360FFF73AF967
:10618000284638BD0010014000E100E0B436002090
:10619000134AB0F1FF3F14BF03461346013B002BE7
:1061A0001CDD9342A8BF13460E4AD2F804050E4ADE
:1061B0001168401A10F4000F20F07F4218BF00232E
:1061C00001321344094A0A48106000205060044A12
:1061D000934294BFC9188918FFF742BF0023E3E731
:1061E000FFFF7F0000100140B8360020AC360020D1
:1061F00049600000044BD3F80405044B1B68C01A27
:1062000020F07F40704700BF00100140B8360020EA
:10621000014B1868704700BF80040020F0B50822C9
:1062200089B017F0A0FCCB6A03930B6B04934B6B04
:1062300005938B6B0693CB6B079313466A460C460C
:106240000646002711461046CDE90177009717F062
:1062500097FB31460546304617F092FB216B0391C0
:10626000616B0491A16B0591E16B0544CDE90617C3
:106270001046114617F084FB31460544304617F0AE
:106280007FFB0544206A0090606A0190A06A02903A
:10629000A06B0690E06B07903046CDE9047703973A
:1062A00017F06EFB0544606A0090A06AD4F838C00D
:1062B0000190E06A0290CDF810C0606BD4F83CC049
:1062C0000390CDE905C0206A0790304617F058FBCF
:1062D0000544E06A0090206B0190606B0290206A98
:1062E0000690A06A07903046CDE90477039717F02F
:1062F00070FC236B0093636B0193A36B0293E36BBE
:106300000393636A0693E36A07932D1A08233046C2
:10631000CDE9047717F05DFC636B0093A36B0193E9
:10632000E36B0293236A0393636A0493A36ACDE940
:106330000537236B07932D1A0823304617F049FCC5
:10634000A36B0093E36BCDE90137636A0393A36A00
:106350000493E36ACDE90537636B07932D1A08238D
:10636000304617F036FC2D1A10D40D4C35B90822E2
:106370003146204617F003FC01280FD0082322469F
:106380003146304617F025FC2D1AEFE7044A082362
:106390003146304617F0F4FA2D18F8D409B0F0BDA4
:1063A000146F02000449431E0F3013F8012F8A5C5A
:1063B0001A708342F9D17047E3790200F0B5264E96
:1063C00007460C460FCE8DB001AD0FC50FCE0FC5E1
:1063D00096E8070085E807003846002F38D0002CE3
:1063E00038D0381F2146024610344B780D781B04F4
:1063F00043EA0563CD782B438D78043143EA0523C6
:106400008C4242F8043FF0D1144C04218A070369FE
:1064100016D1C3F30742A55C1A0EA25C42EA0562DC
:10642000C3F30725DBB2655DE35C42EA054242EA5D
:1064300003220CAD21F003032B4453F82C3C5340B2
:1064400050F8042F013153402C290361DED1012083
:106450000DB0F0BD2046FBE7B06C0200E37902000E
:10646000094A0A4993680968D967094998674B68D6
:1064700043F080534B60002383F31188BFF36F8F89
:106480009368D86F704700BFA4540020E8780200DA
:1064900000ED00E012498A684FF030001044EFF33D
:1064A000098C80E8F01F202080F31188BFF36F8FE4
:1064B0000C4F4FF000664A6A8A603E60906F00237E
:1064C000936780F3118804B5104600F05DFABDE8CB
:1064D000044002F1300090E8F01F8CF30988704707
:1064E000A454002004ED00E01EF0040F0CBFEFF3F5
:1064F0000880EFF30980816911F8021C0229FFD09E
:1065000001B518F091FA01BD43B2002B08DB01225E
:1065100000F01F0002FA00F05B09024A42F8230073
:10652000704700BF00E100E043B2002B0DDB012209
:106530005B0900F01F0002FA00F02033034A42F822
:106540002300BFF34F8FBFF36F8F704700E100E070
:10655000054B420900F01F0053F82220012303FAE3
:1065600000F01040704700BF00E100E043B2002B94
:10657000A8BF03F1604301F10101B8BF064B4FEA28
:106580004111ACBF03F5614300F00F00C9B2B4BFC5
:10659000195483F80013704714ED00E008B572B683
:1065A000044B186A18B100221A621FF04EFC62B642
:1065B00008BD00BFA454002042F8203C009B42F8D4
:1065C0001C3C0A49019B42F8183C029B42F8143CCF
:1065D00021F001014FF0807342F8043C42F8081C9E
:1065E0000023203A02658367704700BFAFC30100F4
:1065F000094A0346906870B113F1160F806E05D0FA
:10660000A0F120029A4205D8834203D2814228BFDA
:106610000020704700207047A454002008B5094BA3
:1066200098600D46144600F0AFF9204685F30988BE
:10663000002163B681F31188BFF36F8F002200231E
:1066400015F0B5FEA4540020014910220A607047DD
:1066500010ED00E072B6404080F31188BFF36F8FF9
:10666000BFF34F8F30BF62B6BFF36F8F704700BF6D
:1066700072B6494081F3118820BF80F3118862B659
:10668000704700BF30BFFFF7FDBF00BF0E4A08B51F
:106690000E4B22F07F029A60BFF34F8FBFF36F8FD4
:1066A000D3F8882022F47002C3F88820EFF3148313
:1066B00023F0040383F3148814F012FA15F054FA4B
:1066C00000F038F914F030FA0010000000ED00E09E
:1066D00001B572B60B4A106A00281EBF0021116274
:1066E0001FF0B3FB62B6EFF30580A0F110004FEA94
:1066F000C0000549014409C99847BDE80140034964
:1067000008470000A45400205469020019690000E1
:1067100020F072F8202080F3118808484FF40261BD
:10672000401880F30988EFF314800221084380F3B6
:106730001488BFF36F8FFFF7A9FF0000808100204E
:10674000EFF30880EFF3098101B5724600F056F8C7
:1067500001BD00BF38B5194B14469A6A9A6A9A6A05
:106760000546900719D5586B9A6A120615D519B1C6
:106770009A6A22F080029A629A6A9A6A9A6AD106A2
:106780000ED49B6A9A070BD400200C4A936A43F0FC
:10679000FF0393620023237038BD6FF01500EBE711
:1067A000064B5B681B05EFD52946FFF721FF002844
:1067B000EAD080F309880220E7E700BF00ED00E09F
:1067C0000D4B9A6A9A6A9A6A920508D59A6B9A6AE8
:1067D000120404D518B19A6A22F400429A62064B58
:1067E0009A6A9A6AD20558BF9A6A9A6A002042F455
:1067F0007F429A620870704700ED00E070B5414B2F
:106800005B688AB00E46C3F30803002585F3118840
:10681000BFF36F8F02F07F41B1F17F4F11D102F0D2
:106820000C0108290DD0110701D4064601250022CC
:10683000033B8DF80720032B5DD8DFE803F0044706
:106840004B4F2E46F3E72F4BDC6A14F0020452D173
:10685000DA6A520022D593F828203AB10DF10702E6
:1068600001213046FFF776FF044617E093F8292010
:106870002AB10DF107010120FFF7A2FFF4E75A8DBD
:1068800092B25AB19A6A9A6A9A6A9A6A9A6A9A6AA1
:106890009A6A6FEA02426FEA12429A629DF80730E2
:1068A00093B92022314602A818F085F9099B25B337
:1068B000C3F3080222B96FEA53236FEA4323099313
:1068C00002A9204618F0AEF80AB070BD0DF107021B
:1068D0000021C6E70DF107010020CDE7094B9A6AB8
:1068E0009A6A9A6A9A6A9A6A9A6A9A6A6FEA0242F3
:1068F0006FEA12429A620024D0E723F4FF7323F078
:106900000103DCE700ED00E0024A536943F01003A5
:106910005361704700ED00E0044B9968586A884263
:1069200003D003494FF080520A607047A4540020FE
:1069300004ED00E0044800232021C2180133302B6D
:1069400082F80013F9D1704700E100E0064B9B6824
:10695000834207D1EFF3058323B1044A536843F020
:106960008053536015F09CB8A454002000ED00E063
:10697000024B034A0348012100F06EB800000420D6
:1069800000000020C06F0200826E054B203A1A60A2
:10699000044A2021C3E901121846012100F066B81B
:1069A000BC36002000000B15F0B51F4F00268E42AC
:1069B00001DB1046F0BD44689CB353B104F1FF3CC9
:1069C00014EA0C0F18D11F2C16D905681CEA050F04
:1069D00012D1202C0568D0F808C0D2B20FD9B4F17A
:1069E000004F0ED8013CB4FA84F4C4F11F046400D3
:1069F000072A4CEA040406D96FF01502D9E70824E7
:106A0000F6E73E24F4E725F01F05154345F0100591
:106A100044F00104C7F89820C7F89C500132C7F829
:106A2000A04001360C30C2E700ED00E0044B052227
:106A3000C3F89420BFF34F8FBFF36F8F704700BF31
:106A400000ED00E0BFF35F8F024B0022C3F89420FB
:106A5000704700BF00ED00E010B5034C0123227821
:106A6000FFF7A2FF207010BD365E002008B5094A6E
:106A700000231278FFF798FF10F1160F02D0064A94
:106A8000072800DD08BDC2F89800C2F8A030013028
:106A9000F6E700BF365E002000ED00E0144908680C
:106AA000082810B521D8FFF7CDFF124C4968002205
:106AB000904201F10C0105D10F4B1870FFF7B6FFA2
:106AC000002010BDC4F8982051F80C3C23F01F039F
:106AD000134343F01003C4F89C3051F8043C43F0D6
